{
  "contractName": "Delottery",
  "abi": [
    {
      "constant": true,
      "inputs": [
        {
          "internalType": "uint256",
          "name": "",
          "type": "uint256"
        }
      ],
      "name": "userkey",
      "outputs": [
        {
          "internalType": "address",
          "name": "",
          "type": "address"
        }
      ],
      "payable": false,
      "stateMutability": "view",
      "type": "function"
    },
    {
      "constant": false,
      "inputs": [
        {
          "internalType": "address",
          "name": "playerAddress",
          "type": "address"
        },
        {
          "internalType": "uint256",
          "name": "_lottoNum",
          "type": "uint256"
        },
        {
          "internalType": "uint256",
          "name": "_amount",
          "type": "uint256"
        }
      ],
      "name": "bookLotto",
      "outputs": [
        {
          "internalType": "bool",
          "name": "",
          "type": "bool"
        }
      ],
      "payable": false,
      "stateMutability": "nonpayable",
      "type": "function"
    },
    {
      "constant": false,
      "inputs": [
        {
          "internalType": "uint256",
          "name": "goldenDraw",
          "type": "uint256"
        }
      ],
      "name": "rewardGolden",
      "outputs": [
        {
          "internalType": "bool",
          "name": "",
          "type": "bool"
        }
      ],
      "payable": false,
      "stateMutability": "nonpayable",
      "type": "function"
    },
    {
      "constant": false,
      "inputs": [
        {
          "internalType": "uint256",
          "name": "miniDraw",
          "type": "uint256"
        }
      ],
      "name": "rewardMini",
      "outputs": [
        {
          "internalType": "bool",
          "name": "",
          "type": "bool"
        }
      ],
      "payable": false,
      "stateMutability": "nonpayable",
      "type": "function"
    },
    {
      "constant": false,
      "inputs": [],
      "name": "moveLocktoWithdraw",
      "outputs": [
        {
          "internalType": "bool",
          "name": "",
          "type": "bool"
        }
      ],
      "payable": false,
      "stateMutability": "nonpayable",
      "type": "function"
    },
    {
      "constant": true,
      "inputs": [],
      "name": "getAddress",
      "outputs": [
        {
          "internalType": "address",
          "name": "",
          "type": "address"
        }
      ],
      "payable": false,
      "stateMutability": "view",
      "type": "function"
    },
    {
      "constant": true,
      "inputs": [],
      "name": "getTotalReward",
      "outputs": [
        {
          "internalType": "uint256",
          "name": "",
          "type": "uint256"
        }
      ],
      "payable": false,
      "stateMutability": "view",
      "type": "function"
    },
    {
      "constant": true,
      "inputs": [],
      "name": "getgoldPrize",
      "outputs": [
        {
          "internalType": "uint256",
          "name": "",
          "type": "uint256"
        }
      ],
      "payable": false,
      "stateMutability": "view",
      "type": "function"
    },
    {
      "constant": true,
      "inputs": [],
      "name": "getminiPrize",
      "outputs": [
        {
          "internalType": "uint256",
          "name": "",
          "type": "uint256"
        }
      ],
      "payable": false,
      "stateMutability": "view",
      "type": "function"
    },
    {
      "constant": true,
      "inputs": [],
      "name": "getGoldWinner",
      "outputs": [
        {
          "internalType": "uint256",
          "name": "",
          "type": "uint256"
        }
      ],
      "payable": false,
      "stateMutability": "view",
      "type": "function"
    },
    {
      "constant": true,
      "inputs": [],
      "name": "getMiniWinner",
      "outputs": [
        {
          "internalType": "uint256",
          "name": "",
          "type": "uint256"
        }
      ],
      "payable": false,
      "stateMutability": "view",
      "type": "function"
    },
    {
      "constant": true,
      "inputs": [],
      "name": "getGoldNumber",
      "outputs": [
        {
          "internalType": "uint256",
          "name": "",
          "type": "uint256"
        }
      ],
      "payable": false,
      "stateMutability": "view",
      "type": "function"
    },
    {
      "constant": true,
      "inputs": [],
      "name": "getMiniNumber",
      "outputs": [
        {
          "internalType": "uint256",
          "name": "",
          "type": "uint256"
        }
      ],
      "payable": false,
      "stateMutability": "view",
      "type": "function"
    },
    {
      "constant": true,
      "inputs": [
        {
          "internalType": "address",
          "name": "playerAddress",
          "type": "address"
        }
      ],
      "name": "getWallet",
      "outputs": [
        {
          "internalType": "uint256",
          "name": "",
          "type": "uint256"
        },
        {
          "internalType": "uint256",
          "name": "",
          "type": "uint256"
        }
      ],
      "payable": false,
      "stateMutability": "view",
      "type": "function"
    },
    {
      "constant": true,
      "inputs": [
        {
          "internalType": "uint256",
          "name": "lottoNum",
          "type": "uint256"
        }
      ],
      "name": "getlottofortestbooking",
      "outputs": [
        {
          "internalType": "address",
          "name": "",
          "type": "address"
        },
        {
          "internalType": "uint256",
          "name": "",
          "type": "uint256"
        }
      ],
      "payable": false,
      "stateMutability": "view",
      "type": "function"
    },
    {
      "constant": false,
      "inputs": [
        {
          "internalType": "uint256",
          "name": "setprize",
          "type": "uint256"
        }
      ],
      "name": "setTotalPrice",
      "outputs": [],
      "payable": false,
      "stateMutability": "nonpayable",
      "type": "function"
    },
    {
      "constant": false,
      "inputs": [
        {
          "internalType": "address",
          "name": "testAddress",
          "type": "address"
        },
        {
          "internalType": "uint256",
          "name": "balance",
          "type": "uint256"
        }
      ],
      "name": "setWithdraw",
      "outputs": [],
      "payable": false,
      "stateMutability": "nonpayable",
      "type": "function"
    },
    {
      "constant": false,
      "inputs": [
        {
          "internalType": "address",
          "name": "testAddress",
          "type": "address"
        },
        {
          "internalType": "uint256",
          "name": "balance",
          "type": "uint256"
        }
      ],
      "name": "setLock",
      "outputs": [],
      "payable": false,
      "stateMutability": "nonpayable",
      "type": "function"
    }
  ],
  "bytecode": "0x6080604052600160045534801561001557600080fd5b50610fd0806100256000396000f3fe608060405234801561001057600080fd5b50600436106101165760003560e01c8063a2df3cb4116100a2578063b413319511610071578063b413319514610451578063bf54a0fb1461046f578063ccc123e6146104b5578063edb2156e14610525578063f778c0011461054357610116565b8063a2df3cb414610369578063a888a102146103b7578063a9a9965a146103e5578063b0fc29e61461040357610116565b806369d2e8e3116100e957806369d2e8e31461025457806370726435146102725780637a241b63146102b85780637af10de7146102d65780637d1fcbfa1461034b57610116565b806304d0a6471461011b578063387234251461017a57806338cc48311461019c5780633cee583f146101e6575b600080fd5b61015d6004803603602081101561013157600080fd5b81019080803573ffffffffffffffffffffffffffffffffffffffff169060200190929190505050610561565b604051808381526020018281526020019250505060405180910390f35b6101826105df565b604051808215151515815260200191505060405180910390f35b6101a461072c565b604051808273ffffffffffffffffffffffffffffffffffffffff1673ffffffffffffffffffffffffffffffffffffffff16815260200191505060405180910390f35b610212600480360360208110156101fc57600080fd5b810190808035906020019092919050505061074d565b604051808273ffffffffffffffffffffffffffffffffffffffff1673ffffffffffffffffffffffffffffffffffffffff16815260200191505060405180910390f35b61025c610789565b6040518082815260200191505060405180910390f35b61029e6004803603602081101561028857600080fd5b81019080803590602001909291905050506107ae565b604051808215151515815260200191505060405180910390f35b6102c06109ad565b6040518082815260200191505060405180910390f35b610302600480360360208110156102ec57600080fd5b81019080803590602001909291905050506109d2565b604051808373ffffffffffffffffffffffffffffffffffffffff1673ffffffffffffffffffffffffffffffffffffffff1681526020018281526020019250505060405180910390f35b610353610a64565b6040518082815260200191505060405180910390f35b6103b56004803603604081101561037f57600080fd5b81019080803573ffffffffffffffffffffffffffffffffffffffff16906020019092919080359060200190929190505050610a89565b005b6103e3600480360360208110156103cd57600080fd5b8101908080359060200190929190505050610ad3565b005b6103ed610af3565b6040518082815260200191505060405180910390f35b61044f6004803603604081101561041957600080fd5b81019080803573ffffffffffffffffffffffffffffffffffffffff16906020019092919080359060200190929190505050610b18565b005b610459610b62565b6040518082815260200191505060405180910390f35b61049b6004803603602081101561048557600080fd5b8101908080359060200190929190505050610b87565b604051808215151515815260200191505060405180910390f35b61050b600480360360608110156104cb57600080fd5b81019080803573ffffffffffffffffffffffffffffffffffffffff1690602001909291908035906020019092919080359060200190929190505050610d86565b604051808215151515815260200191505060405180910390f35b61052d610f37565b6040518082815260200191505060405180910390f35b61054b610f5c565b6040518082815260200191505060405180910390f35b60008061056c610f81565b6000808573ffffffffffffffffffffffffffffffffffffffff1673ffffffffffffffffffffffffffffffffffffffff168152602001908152602001600020604051806040016040529081600082015481526020016001820154815250509050806000015181602001519250925050915091565b6000806000905060008090505b6001805490508110156107205760006001828154811061060857fe5b9060005260206000200160009054906101000a900473ffffffffffffffffffffffffffffffffffffffff16905060008060008373ffffffffffffffffffffffffffffffffffffffff1673ffffffffffffffffffffffffffffffffffffffff168152602001908152602001600020600101549050806000808473ffffffffffffffffffffffffffffffffffffffff1673ffffffffffffffffffffffffffffffffffffffff1681526020019081526020016000206000016000828254019250508190555060008060008473ffffffffffffffffffffffffffffffffffffffff1673ffffffffffffffffffffffffffffffffffffffff16815260200190815260200160002060010181905550505080806001019150506105ec565b60019150819250505090565b60008073a832d93032afd5afc25638767c636cb35b3fbc9d90508091505090565b6001818154811061075a57fe5b906000526020600020016000915054906101000a900473ffffffffffffffffffffffffffffffffffffffff1681565b6000806003600060045481526020019081526020016000206005015490508091505090565b600080600090506000600260008581526020019081526020016000209050806000018054905060036000600454815260200190815260200160002060050181905550836003600060045481526020019081526020016000206001018190555060008060009050600091505b82600101805490508210156108535782600101828154811061083757fe5b9060005260206000200154810190508180600101925050610819565b6003600060045481526020019081526020016000206000015460080260036000600454815260200190815260200160002060030181905550600091505b826001018054905082101561097f576000818460010184815481106108b157fe5b90600052602060002001546003600060045481526020019081526020016000206000015460080202816108e057fe5b04905060008460000184815481106108f457fe5b9060005260206000200160009054906101000a900473ffffffffffffffffffffffffffffffffffffffff169050816000808373ffffffffffffffffffffffffffffffffffffffff1673ffffffffffffffffffffffffffffffffffffffff1681526020019081526020016000206000016000828254019250508190555050508180600101925050610890565b6000600360006004548152602001908152602001600020600001819055506001935083945050505050919050565b6000806003600060045481526020019081526020016000206002015490508091505090565b6000806000600260008581526020019081526020016000206000016000815481106109f957fe5b9060005260206000200160009054906101000a900473ffffffffffffffffffffffffffffffffffffffff169050600060026000868152602001908152602001600020600101600081548110610a4a57fe5b906000526020600020015490508181935093505050915091565b6000806003600060045481526020019081526020016000206000015490508091505090565b806000808473ffffffffffffffffffffffffffffffffffffffff1673ffffffffffffffffffffffffffffffffffffffff168152602001908152602001600020600001819055505050565b806003600060045481526020019081526020016000206000018190555050565b6000806003600060045481526020019081526020016000206004015490508091505090565b806000808473ffffffffffffffffffffffffffffffffffffffff1673ffffffffffffffffffffffffffffffffffffffff168152602001908152602001600020600101819055505050565b6000806003600060045481526020019081526020016000206003015490508091505090565b600080600090506000600260008581526020019081526020016000209050806000018054905060036000600454815260200190815260200160002060060181905550836003600060045481526020019081526020016000206002018190555060008060009050600091505b8260010180549050821015610c2c57826001018281548110610c1057fe5b9060005260206000200154810190508180600101925050610bf2565b6003600060045481526020019081526020016000206000015460020260036000600454815260200190815260200160002060040181905550600091505b8260010180549050821015610d5857600081846001018481548110610c8a57fe5b9060005260206000200154600360006004548152602001908152602001600020600001546002020281610cb957fe5b0490506000846000018481548110610ccd57fe5b9060005260206000200160009054906101000a900473ffffffffffffffffffffffffffffffffffffffff169050816000808373ffffffffffffffffffffffffffffffffffffffff1673ffffffffffffffffffffffffffffffffffffffff1681526020019081526020016000206000016000828254019250508190555050508180600101925050610c69565b6000600360006004548152602001908152602001600020600001819055506001935083945050505050919050565b6000806000905060018590806001815401808255809150509060018203906000526020600020016000909192909190916101000a81548173ffffffffffffffffffffffffffffffffffffffff021916908373ffffffffffffffffffffffffffffffffffffffff16021790555050600260008581526020019081526020016000206000018590806001815401808255809150509060018203906000526020600020016000909192909190916101000a81548173ffffffffffffffffffffffffffffffffffffffff021916908373ffffffffffffffffffffffffffffffffffffffff1602179055505060026000858152602001908152602001600020600101839080600181540180825580915050906001820390600052602060002001600090919290919091505550826005026000808773ffffffffffffffffffffffffffffffffffffffff1673ffffffffffffffffffffffffffffffffffffffff16815260200190815260200160002060010160008282540192505081905550826005026003600060045481526020019081526020016000206000016000828254019250508190555060019050809150509392505050565b6000806003600060045481526020019081526020016000206001015490508091505090565b6000806003600060045481526020019081526020016000206006015490508091505090565b60405180604001604052806000815260200160008152509056fea265627a7a723158208eab27e8c88f76587b46ba53fb10da17f53d4ba058954c79294850e7259c93b464736f6c63430005100032",
  "source": "pragma solidity >=0.5.0;\r\n\r\ncontract Delottery {\r\n    struct user {\r\n        uint wdBalance;         // คูณ 10 อยู่เพราะ solidity ไม่มีจุดทศนิยม \r\n        uint lockBalance;       // คูณ 10 อยู่เพราะ solidity ไม่มีจุดทศนิยม \r\n    } \r\n\r\n    struct lotto {\r\n        address[] buyer;\r\n        uint[] amount;          // คูณ 1 อยู่เพราะ solidity ไม่มีจุดทศนิยม\r\n    } \r\n\r\n    struct prize {\r\n        uint value;             // คูณ 10 อยู่เพราะ solidity ไม่มีจุดทศนิยม  value=sum amount*0.5\r\n        uint goldNumber;    \r\n        uint miniNumber;\r\n        uint goldPrize;         // คูณ 100 อยู่เพราะ solidity ไม่มีจุดทศนิยม   gold = value * 0.8\r\n        uint miniPrize;         // คูณ 100 อยู่เพราะ solidity ไม่มีจุดทศนิยม   mini = value * 0.2\r\n        uint goldWinner;\r\n        uint miniWinner;\r\n\r\n\r\n    } \r\n\r\n\r\n\r\n    mapping (address => user) userMap;\r\n    address[] public userkey;\r\n    mapping (uint => lotto) lottoMap;\r\n    mapping (uint => prize) prizeMap;\r\n\r\n    uint round = 1;\r\n\r\n    function bookLotto(address playerAddress,uint _lottoNum,uint _amount) public returns (bool){            \r\n        bool result = false;\r\n        userkey.push(playerAddress);                                                                                          \r\n        lottoMap[_lottoNum].buyer.push(playerAddress);\r\n        lottoMap[_lottoNum].amount.push(_amount);\r\n        userMap[playerAddress].lockBalance += 5  * _amount;\r\n        prizeMap[round].value += 5  * _amount;\r\n        result = true;\r\n        return (result);                                                              \r\n    }\r\n\r\n    \r\n\r\n    function rewardGolden(uint goldenDraw) public returns (bool){            \r\n        bool result = false;\r\n        lotto storage gWinner =lottoMap[goldenDraw];                                                                                                         \r\n        prizeMap[round].goldWinner = gWinner.buyer.length;\r\n        prizeMap[round].goldNumber = goldenDraw;\r\n\r\n        uint i;\r\n        uint sumGoldWinAmount = 0;\r\n    \r\n        for(i = 0; i < gWinner.amount.length; i++){     // หาผลรวม amount ทั้งหมดของคนที่ถูกรางวัล\r\n            sumGoldWinAmount += gWinner.amount[i]; \r\n        }\r\n\r\n        prizeMap[round].goldPrize = 8 * prizeMap[round].value;\r\n        \r\n        for(i = 0; i < gWinner.amount.length; i++){     // แจกรางวัลทั้งหมดลงใน wdBalance(withdraw wallet)\r\n            uint reward;\r\n\r\n            reward = (8 * prizeMap[round].value * gWinner.amount[i])/sumGoldWinAmount;  // 0.8 กำหนดจากการกำหนดของ admin\r\n\r\n            address playerAddress = gWinner.buyer[i];\r\n\r\n            userMap[playerAddress].wdBalance += reward;\r\n        }\r\n        prizeMap[round].value = 0 ;\r\n        result = true;\r\n        return (result);                                                              \r\n    }\r\n\r\n    function rewardMini(uint miniDraw) public returns (bool){            \r\n        bool result = false;\r\n        lotto storage mWinner =lottoMap[miniDraw];                                                                                                          \r\n        prizeMap[round].miniWinner = mWinner.buyer.length;\r\n        prizeMap[round].miniNumber = miniDraw;\r\n\r\n        uint i;\r\n        uint sumMiniWinAmount = 0;\r\n    \r\n        for(i = 0; i < mWinner.amount.length; i++){     // หาผลรวม amount ทั้งหมดของคนที่ถูกรางวัล\r\n            sumMiniWinAmount += mWinner.amount[i]; \r\n        }\r\n\r\n        prizeMap[round].miniPrize = 2 * prizeMap[round].value;\r\n        \r\n        for(i = 0; i < mWinner.amount.length; i++){     // แจกรางวัลทั้งหมดลงใน wdBalance(withdraw wallet)\r\n            uint reward;\r\n\r\n            reward = (2 * prizeMap[round].value * mWinner.amount[i])/sumMiniWinAmount;  // 0.2 กำหนดจากการกำหนดของ admin\r\n\r\n            address playerAddress = mWinner.buyer[i];\r\n\r\n            userMap[playerAddress].wdBalance += reward;\r\n        }\r\n        prizeMap[round].value = 0 ;\r\n        result = true;\r\n        return (result);  \r\n\r\n    }\r\n    \r\n    function moveLocktoWithdraw() public returns (bool){\r\n       \r\n        bool result = false;\r\n         uint i;\r\n        for(i = 0; i < userkey.length; i++){\r\n            address userAddress = userkey[i];\r\n        //อ่านค่า lockwallet\r\n            uint moveValue = userMap[userAddress].lockBalance;\r\n        //บวก lockwallet ลง ใน wdwallet\r\n            userMap[userAddress].wdBalance += moveValue;\r\n        //ทำให้ lock wallet เป็น 0\r\n            userMap[userAddress].lockBalance = 0;\r\n        }\r\n        result = true;\r\n        return (result); \r\n        }\r\n\r\n\r\n\r\n    function getAddress() public view returns (address){\r\n        address useraddress = 0xA832D93032aFD5aFC25638767C636cB35B3fBc9d;\r\n        return (useraddress);   \r\n\r\n    }\r\n\r\n\r\n    function getTotalReward() public view returns (uint) {    \r\n        uint totalReward = prizeMap[round].value;\r\n        return (totalReward);\r\n    }\r\n\r\n    function getgoldPrize() public view returns (uint) {    \r\n        uint goldP = prizeMap[round].goldPrize;\r\n        return (goldP);\r\n    }\r\n\r\n    function getminiPrize() public view returns (uint) {    \r\n        uint miniP = prizeMap[round].miniPrize;\r\n        return (miniP);\r\n    }\r\n\r\n    function getGoldWinner() public view returns (uint) {    \r\n        uint goldW = prizeMap[round].goldWinner;\r\n        return (goldW);\r\n    }\r\n\r\n    function getMiniWinner() public view returns (uint) {    \r\n        uint miniW = prizeMap[round].miniWinner;\r\n        return (miniW);\r\n    }\r\n\r\n    function getGoldNumber() public view returns (uint) {    \r\n        uint goldN = prizeMap[round].goldNumber;\r\n        return (goldN);\r\n    }\r\n\r\n    function getMiniNumber() public view returns (uint) {    \r\n        uint miniN = prizeMap[round].miniNumber;\r\n        return (miniN);\r\n    }\r\n\r\n    function getWallet(address playerAddress) public view returns (uint,uint) {    \r\n        user memory thisuser = userMap[playerAddress];\r\n        return (thisuser.wdBalance,thisuser.lockBalance);\r\n    }\r\n\r\n    // form TestDelottery.sol\r\n\r\n    \r\n\r\n    function getlottofortestbooking(uint lottoNum) public view returns (address,uint) {    \r\n        // lotto.buyer , lotto.amount , user.lockbalance & prize.value ต้องเปลี่ยน\r\n        address testBuyer = lottoMap[lottoNum].buyer[0];\r\n        uint testAmount = lottoMap[lottoNum].amount[0];\r\n        return (testBuyer,testAmount);\r\n    }\r\n\r\n    function setTotalPrice (uint setprize) public  {\r\n        prizeMap[round].value = setprize ;\r\n    }\r\n\r\n    function setWithdraw (address testAddress,uint balance) public  {\r\n        userMap[testAddress].wdBalance = balance ;\r\n    }\r\n\r\n    function setLock (address testAddress,uint balance) public  {\r\n        userMap[testAddress].lockBalance = balance ;\r\n    }\r\n\r\n}",
  "sourcePath": "C:/Users/chira/Desktop/is_utcc/IS_LOTTOWIN/contracts/Delottery.sol",
  "compiler": {
    "name": "solc",
    "version": "0.5.16+commit.9c3226ce.Emscripten.clang"
  },
  "schemaVersion": "3.4.1",
  "updatedAt": "2021-06-24T19:52:37.524Z",
  "networkType": "ethereum",
  "devdoc": {
    "methods": {}
  },
  "userdoc": {
    "methods": {}
  }
}